{
  "_format": "hh-sol-artifact-1",
  "contractName": "CreditCertificate",
  "sourceName": "contracts/CreditCertificate.sol",
  "abi": [
    {
      "inputs": [],
      "stateMutability": "nonpayable",
      "type": "constructor"
    },
    {
      "anonymous": false,
      "inputs": [
        {
          "indexed": true,
          "internalType": "address",
          "name": "owner",
          "type": "address"
        },
        {
          "indexed": true,
          "internalType": "address",
          "name": "approved",
          "type": "address"
        },
        {
          "indexed": true,
          "internalType": "uint256",
          "name": "tokenId",
          "type": "uint256"
        }
      ],
      "name": "Approval",
      "type": "event"
    },
    {
      "anonymous": false,
      "inputs": [
        {
          "indexed": true,
          "internalType": "address",
          "name": "owner",
          "type": "address"
        },
        {
          "indexed": true,
          "internalType": "address",
          "name": "operator",
          "type": "address"
        },
        {
          "indexed": false,
          "internalType": "bool",
          "name": "approved",
          "type": "bool"
        }
      ],
      "name": "ApprovalForAll",
      "type": "event"
    },
    {
      "anonymous": false,
      "inputs": [
        {
          "indexed": true,
          "internalType": "address",
          "name": "to",
          "type": "address"
        },
        {
          "indexed": true,
          "internalType": "uint256",
          "name": "tokenId",
          "type": "uint256"
        }
      ],
      "name": "Attest",
      "type": "event"
    },
    {
      "anonymous": false,
      "inputs": [
        {
          "indexed": true,
          "internalType": "address",
          "name": "previousOwner",
          "type": "address"
        },
        {
          "indexed": true,
          "internalType": "address",
          "name": "newOwner",
          "type": "address"
        }
      ],
      "name": "OwnershipTransferred",
      "type": "event"
    },
    {
      "anonymous": false,
      "inputs": [
        {
          "indexed": true,
          "internalType": "address",
          "name": "to",
          "type": "address"
        },
        {
          "indexed": true,
          "internalType": "uint256",
          "name": "tokenId",
          "type": "uint256"
        }
      ],
      "name": "Revoke",
      "type": "event"
    },
    {
      "anonymous": false,
      "inputs": [
        {
          "indexed": true,
          "internalType": "address",
          "name": "from",
          "type": "address"
        },
        {
          "indexed": true,
          "internalType": "address",
          "name": "to",
          "type": "address"
        },
        {
          "indexed": true,
          "internalType": "uint256",
          "name": "tokenId",
          "type": "uint256"
        }
      ],
      "name": "Transfer",
      "type": "event"
    },
    {
      "inputs": [
        {
          "internalType": "address",
          "name": "to",
          "type": "address"
        },
        {
          "internalType": "uint256",
          "name": "tokenId",
          "type": "uint256"
        }
      ],
      "name": "approve",
      "outputs": [],
      "stateMutability": "nonpayable",
      "type": "function"
    },
    {
      "inputs": [
        {
          "internalType": "address",
          "name": "owner",
          "type": "address"
        }
      ],
      "name": "balanceOf",
      "outputs": [
        {
          "internalType": "uint256",
          "name": "",
          "type": "uint256"
        }
      ],
      "stateMutability": "view",
      "type": "function"
    },
    {
      "inputs": [
        {
          "internalType": "uint256",
          "name": "tokenId",
          "type": "uint256"
        }
      ],
      "name": "getApproved",
      "outputs": [
        {
          "internalType": "address",
          "name": "",
          "type": "address"
        }
      ],
      "stateMutability": "view",
      "type": "function"
    },
    {
      "inputs": [
        {
          "internalType": "address",
          "name": "_holder",
          "type": "address"
        }
      ],
      "name": "getLockData",
      "outputs": [
        {
          "components": [
            {
              "internalType": "address",
              "name": "holder",
              "type": "address"
            },
            {
              "internalType": "uint256",
              "name": "amount",
              "type": "uint256"
            },
            {
              "internalType": "uint256",
              "name": "tokenId",
              "type": "uint256"
            },
            {
              "internalType": "string",
              "name": "tokenUrI",
              "type": "string"
            },
            {
              "internalType": "string",
              "name": "name",
              "type": "string"
            },
            {
              "internalType": "string",
              "name": "description",
              "type": "string"
            }
          ],
          "internalType": "struct CreditCertificate.Lock",
          "name": "",
          "type": "tuple"
        }
      ],
      "stateMutability": "view",
      "type": "function"
    },
    {
      "inputs": [
        {
          "internalType": "address",
          "name": "owner",
          "type": "address"
        },
        {
          "internalType": "address",
          "name": "operator",
          "type": "address"
        }
      ],
      "name": "isApprovedForAll",
      "outputs": [
        {
          "internalType": "bool",
          "name": "",
          "type": "bool"
        }
      ],
      "stateMutability": "view",
      "type": "function"
    },
    {
      "inputs": [
        {
          "internalType": "uint256",
          "name": "_amount",
          "type": "uint256"
        },
        {
          "internalType": "string",
          "name": "_tokenUri",
          "type": "string"
        },
        {
          "internalType": "string",
          "name": "_name",
          "type": "string"
        },
        {
          "internalType": "string",
          "name": "_desc",
          "type": "string"
        }
      ],
      "name": "lockFunds",
      "outputs": [],
      "stateMutability": "payable",
      "type": "function"
    },
    {
      "inputs": [
        {
          "internalType": "address",
          "name": "",
          "type": "address"
        }
      ],
      "name": "locked",
      "outputs": [
        {
          "internalType": "address",
          "name": "holder",
          "type": "address"
        },
        {
          "internalType": "uint256",
          "name": "amount",
          "type": "uint256"
        },
        {
          "internalType": "uint256",
          "name": "tokenId",
          "type": "uint256"
        },
        {
          "internalType": "string",
          "name": "tokenUrI",
          "type": "string"
        },
        {
          "internalType": "string",
          "name": "name",
          "type": "string"
        },
        {
          "internalType": "string",
          "name": "description",
          "type": "string"
        }
      ],
      "stateMutability": "view",
      "type": "function"
    },
    {
      "inputs": [],
      "name": "name",
      "outputs": [
        {
          "internalType": "string",
          "name": "",
          "type": "string"
        }
      ],
      "stateMutability": "view",
      "type": "function"
    },
    {
      "inputs": [],
      "name": "owner",
      "outputs": [
        {
          "internalType": "address",
          "name": "",
          "type": "address"
        }
      ],
      "stateMutability": "view",
      "type": "function"
    },
    {
      "inputs": [
        {
          "internalType": "uint256",
          "name": "tokenId",
          "type": "uint256"
        }
      ],
      "name": "ownerOf",
      "outputs": [
        {
          "internalType": "address",
          "name": "",
          "type": "address"
        }
      ],
      "stateMutability": "view",
      "type": "function"
    },
    {
      "inputs": [],
      "name": "renounceOwnership",
      "outputs": [],
      "stateMutability": "nonpayable",
      "type": "function"
    },
    {
      "inputs": [
        {
          "internalType": "address",
          "name": "from",
          "type": "address"
        },
        {
          "internalType": "address",
          "name": "to",
          "type": "address"
        },
        {
          "internalType": "uint256",
          "name": "tokenId",
          "type": "uint256"
        }
      ],
      "name": "safeTransferFrom",
      "outputs": [],
      "stateMutability": "nonpayable",
      "type": "function"
    },
    {
      "inputs": [
        {
          "internalType": "address",
          "name": "from",
          "type": "address"
        },
        {
          "internalType": "address",
          "name": "to",
          "type": "address"
        },
        {
          "internalType": "uint256",
          "name": "tokenId",
          "type": "uint256"
        },
        {
          "internalType": "bytes",
          "name": "data",
          "type": "bytes"
        }
      ],
      "name": "safeTransferFrom",
      "outputs": [],
      "stateMutability": "nonpayable",
      "type": "function"
    },
    {
      "inputs": [
        {
          "internalType": "address",
          "name": "operator",
          "type": "address"
        },
        {
          "internalType": "bool",
          "name": "approved",
          "type": "bool"
        }
      ],
      "name": "setApprovalForAll",
      "outputs": [],
      "stateMutability": "nonpayable",
      "type": "function"
    },
    {
      "inputs": [
        {
          "internalType": "bytes4",
          "name": "interfaceId",
          "type": "bytes4"
        }
      ],
      "name": "supportsInterface",
      "outputs": [
        {
          "internalType": "bool",
          "name": "",
          "type": "bool"
        }
      ],
      "stateMutability": "view",
      "type": "function"
    },
    {
      "inputs": [],
      "name": "symbol",
      "outputs": [
        {
          "internalType": "string",
          "name": "",
          "type": "string"
        }
      ],
      "stateMutability": "view",
      "type": "function"
    },
    {
      "inputs": [
        {
          "internalType": "uint256",
          "name": "tokenId",
          "type": "uint256"
        }
      ],
      "name": "tokenURI",
      "outputs": [
        {
          "internalType": "string",
          "name": "",
          "type": "string"
        }
      ],
      "stateMutability": "view",
      "type": "function"
    },
    {
      "inputs": [
        {
          "internalType": "address",
          "name": "from",
          "type": "address"
        },
        {
          "internalType": "address",
          "name": "to",
          "type": "address"
        },
        {
          "internalType": "uint256",
          "name": "tokenId",
          "type": "uint256"
        }
      ],
      "name": "transferFrom",
      "outputs": [],
      "stateMutability": "nonpayable",
      "type": "function"
    },
    {
      "inputs": [
        {
          "internalType": "address",
          "name": "newOwner",
          "type": "address"
        }
      ],
      "name": "transferOwnership",
      "outputs": [],
      "stateMutability": "nonpayable",
      "type": "function"
    },
    {
      "inputs": [
        {
          "internalType": "address",
          "name": "_beneficiary",
          "type": "address"
        }
      ],
      "name": "unLock",
      "outputs": [],
      "stateMutability": "payable",
      "type": "function"
    },
    {
      "stateMutability": "payable",
      "type": "receive"
    }
  ],
  "bytecode": "0x60806040523480156200001157600080fd5b506040518060400160405280601881526020017f43726564697420427572656120436572746966696361746500000000000000008152506040518060400160405280600481526020017f4342435400000000000000000000000000000000000000000000000000000000815250816000908051906020019062000096929190620001a6565b508060019080519060200190620000af929190620001a6565b505050620000d2620000c6620000d860201b60201c565b620000e060201b60201c565b620002bb565b600033905090565b6000600760009054906101000a900473ffffffffffffffffffffffffffffffffffffffff16905081600760006101000a81548173ffffffffffffffffffffffffffffffffffffffff021916908373ffffffffffffffffffffffffffffffffffffffff1602179055508173ffffffffffffffffffffffffffffffffffffffff168173ffffffffffffffffffffffffffffffffffffffff167f8be0079c531659141344cd1fd0a4f28419497f9722a3daafe3b4186f6b6457e060405160405180910390a35050565b828054620001b49062000285565b90600052602060002090601f016020900481019282620001d8576000855562000224565b82601f10620001f357805160ff191683800117855562000224565b8280016001018555821562000224579182015b828111156200022357825182559160200191906001019062000206565b5b50905062000233919062000237565b5090565b5b808211156200025257600081600090555060010162000238565b5090565b7f4e487b7100000000000000000000000000000000000000000000000000000000600052602260045260246000fd5b600060028204905060018216806200029e57607f821691505b60208210811415620002b557620002b462000256565b5b50919050565b61406980620002cb6000396000f3fe6080604052600436106101235760003560e01c80638da5cb5b116100a0578063c622233111610064578063c6222331146103c0578063c87b56dd146103fd578063cbf9fe5f1461043a578063e985e9c51461047c578063f2fde38b146104b95761012a565b80638da5cb5b146102fc57806395d89b4114610327578063a22cb46514610352578063a25219d11461037b578063b88d4fde146103975761012a565b806342842e0e116100e757806342842e0e146102265780636352211e1461024f57806370a082311461028c578063715018a6146102c957806376e6d2b4146102e05761012a565b806301ffc9a71461012f57806306fdde031461016c578063081812fc14610197578063095ea7b3146101d457806323b872dd146101fd5761012a565b3661012a57005b600080fd5b34801561013b57600080fd5b5061015660048036038101906101519190612a83565b6104e2565b6040516101639190612acb565b60405180910390f35b34801561017857600080fd5b506101816105c4565b60405161018e9190612b7f565b60405180910390f35b3480156101a357600080fd5b506101be60048036038101906101b99190612bd7565b610656565b6040516101cb9190612c45565b60405180910390f35b3480156101e057600080fd5b506101fb60048036038101906101f69190612c8c565b61069c565b005b34801561020957600080fd5b50610224600480360381019061021f9190612ccc565b6107b4565b005b34801561023257600080fd5b5061024d60048036038101906102489190612ccc565b610814565b005b34801561025b57600080fd5b5061027660048036038101906102719190612bd7565b610834565b6040516102839190612c45565b60405180910390f35b34801561029857600080fd5b506102b360048036038101906102ae9190612d1f565b6108e6565b6040516102c09190612d5b565b60405180910390f35b3480156102d557600080fd5b506102de61099e565b005b6102fa60048036038101906102f59190612d1f565b6109b2565b005b34801561030857600080fd5b50610311610c89565b60405161031e9190612c45565b60405180910390f35b34801561033357600080fd5b5061033c610cb3565b6040516103499190612b7f565b60405180910390f35b34801561035e57600080fd5b5061037960048036038101906103749190612da2565b610d45565b005b61039560048036038101906103909190612f17565b610d5b565b005b3480156103a357600080fd5b506103be60048036038101906103b99190613073565b610fac565b005b3480156103cc57600080fd5b506103e760048036038101906103e29190612d1f565b61100e565b6040516103f491906131f5565b60405180910390f35b34801561040957600080fd5b50610424600480360381019061041f9190612bd7565b611287565b6040516104319190612b7f565b60405180910390f35b34801561044657600080fd5b50610461600480360381019061045c9190612d1f565b611299565b60405161047396959493929190613217565b60405180910390f35b34801561048857600080fd5b506104a3600480360381019061049e919061328d565b61148d565b6040516104b09190612acb565b60405180910390f35b3480156104c557600080fd5b506104e060048036038101906104db9190612d1f565b611521565b005b60007f80ac58cd000000000000000000000000000000000000000000000000000000007bffffffffffffffffffffffffffffffffffffffffffffffffffffffff1916827bffffffffffffffffffffffffffffffffffffffffffffffffffffffff191614806105ad57507f5b5e139f000000000000000000000000000000000000000000000000000000007bffffffffffffffffffffffffffffffffffffffffffffffffffffffff1916827bffffffffffffffffffffffffffffffffffffffffffffffffffffffff1916145b806105bd57506105bc826115a5565b5b9050919050565b6060600080546105d3906132fc565b80601f01602080910402602001604051908101604052809291908181526020018280546105ff906132fc565b801561064c5780601f106106215761010080835404028352916020019161064c565b820191906000526020600020905b81548152906001019060200180831161062f57829003601f168201915b5050505050905090565b60006106618261160f565b6004600083815260200190815260200160002060009054906101000a900473ffffffffffffffffffffffffffffffffffffffff169050919050565b60006106a782610834565b90508073ffffffffffffffffffffffffffffffffffffffff168373ffffffffffffffffffffffffffffffffffffffff161415610718576040517f08c379a000000000000000000000000000000000000000000000000000000000815260040161070f906133a0565b60405180910390fd5b8073ffffffffffffffffffffffffffffffffffffffff1661073761165a565b73ffffffffffffffffffffffffffffffffffffffff16148061076657506107658161076061165a565b61148d565b5b6107a5576040517f08c379a000000000000000000000000000000000000000000000000000000000815260040161079c90613432565b60405180910390fd5b6107af8383611662565b505050565b6107c56107bf61165a565b8261171b565b610804576040517f08c379a00000000000000000000000000000000000000000000000000000000081526004016107fb906134c4565b60405180910390fd5b61080f8383836117b0565b505050565b61082f83838360405180602001604052806000815250610fac565b505050565b6000806002600084815260200190815260200160002060009054906101000a900473ffffffffffffffffffffffffffffffffffffffff169050600073ffffffffffffffffffffffffffffffffffffffff168173ffffffffffffffffffffffffffffffffffffffff1614156108dd576040517f08c379a00000000000000000000000000000000000000000000000000000000081526004016108d490613530565b60405180910390fd5b80915050919050565b60008073ffffffffffffffffffffffffffffffffffffffff168273ffffffffffffffffffffffffffffffffffffffff161415610957576040517f08c379a000000000000000000000000000000000000000000000000000000000815260040161094e906135c2565b60405180910390fd5b600360008373ffffffffffffffffffffffffffffffffffffffff1673ffffffffffffffffffffffffffffffffffffffff168152602001908152602001600020549050919050565b6109a6611a17565b6109b06000611a95565b565b8073ffffffffffffffffffffffffffffffffffffffff163373ffffffffffffffffffffffffffffffffffffffff1614610a20576040517f08c379a0000000000000000000000000000000000000000000000000000000008152600401610a179061362e565b60405180910390fd5b8073ffffffffffffffffffffffffffffffffffffffff16600960008373ffffffffffffffffffffffffffffffffffffffff1673ffffffffffffffffffffffffffffffffffffffff16815260200190815260200160002060000160009054906101000a900473ffffffffffffffffffffffffffffffffffffffff1673ffffffffffffffffffffffffffffffffffffffff1614610af0576040517f08c379a0000000000000000000000000000000000000000000000000000000008152600401610ae79061369a565b60405180910390fd5b60008190508073ffffffffffffffffffffffffffffffffffffffff166108fc670de0b6b3a7640000600960008673ffffffffffffffffffffffffffffffffffffffff1673ffffffffffffffffffffffffffffffffffffffff16815260200190815260200160002060010154610b6591906136e9565b9081150290604051600060405180830381858888f19350505050158015610b90573d6000803e3d6000fd5b50610bdc600960008473ffffffffffffffffffffffffffffffffffffffff1673ffffffffffffffffffffffffffffffffffffffff16815260200190815260200160002060020154611b5b565b600960008373ffffffffffffffffffffffffffffffffffffffff1673ffffffffffffffffffffffffffffffffffffffff168152602001908152602001600020600080820160006101000a81549073ffffffffffffffffffffffffffffffffffffffff021916905560018201600090556002820160009055600382016000610c6391906128e8565b600482016000610c7391906128e8565b600582016000610c8391906128e8565b50505050565b6000600760009054906101000a900473ffffffffffffffffffffffffffffffffffffffff16905090565b606060018054610cc2906132fc565b80601f0160208091040260200160405190810160405280929190818152602001828054610cee906132fc565b8015610d3b5780601f10610d1057610100808354040283529160200191610d3b565b820191906000526020600020905b815481529060010190602001808311610d1e57829003601f168201915b5050505050905090565b610d57610d5061165a565b8383611bdd565b5050565b600073ffffffffffffffffffffffffffffffffffffffff16600960003373ffffffffffffffffffffffffffffffffffffffff1673ffffffffffffffffffffffffffffffffffffffff16815260200190815260200160002060000160009054906101000a900473ffffffffffffffffffffffffffffffffffffffff1673ffffffffffffffffffffffffffffffffffffffff1614610e2c576040517f08c379a0000000000000000000000000000000000000000000000000000000008152600401610e239061378f565b60405180910390fd5b348414610e3857600080fd5b6000610e446008611d4a565b9050610e506008611d58565b6040518060c001604052803373ffffffffffffffffffffffffffffffffffffffff168152602001670de0b6b3a764000087610e8b91906137de565b815260200182815260200185815260200184815260200183815250600960003373ffffffffffffffffffffffffffffffffffffffff1673ffffffffffffffffffffffffffffffffffffffff16815260200190815260200160002060008201518160000160006101000a81548173ffffffffffffffffffffffffffffffffffffffff021916908373ffffffffffffffffffffffffffffffffffffffff16021790555060208201518160010155604082015181600201556060820151816003019080519060200190610f5c929190612928565b506080820151816004019080519060200190610f79929190612928565b5060a0820151816005019080519060200190610f96929190612928565b50905050610fa5338583611d6e565b5050505050565b610fbd610fb761165a565b8361171b565b610ffc576040517f08c379a0000000000000000000000000000000000000000000000000000000008152600401610ff3906134c4565b60405180910390fd5b61100884848484611d87565b50505050565b6110166129ae565b600960008373ffffffffffffffffffffffffffffffffffffffff1673ffffffffffffffffffffffffffffffffffffffff1681526020019081526020016000206040518060c00160405290816000820160009054906101000a900473ffffffffffffffffffffffffffffffffffffffff1673ffffffffffffffffffffffffffffffffffffffff1673ffffffffffffffffffffffffffffffffffffffff16815260200160018201548152602001600282015481526020016003820180546110da906132fc565b80601f0160208091040260200160405190810160405280929190818152602001828054611106906132fc565b80156111535780601f1061112857610100808354040283529160200191611153565b820191906000526020600020905b81548152906001019060200180831161113657829003601f168201915b5050505050815260200160048201805461116c906132fc565b80601f0160208091040260200160405190810160405280929190818152602001828054611198906132fc565b80156111e55780601f106111ba576101008083540402835291602001916111e5565b820191906000526020600020905b8154815290600101906020018083116111c857829003601f168201915b505050505081526020016005820180546111fe906132fc565b80601f016020809104026020016040519081016040528092919081815260200182805461122a906132fc565b80156112775780601f1061124c57610100808354040283529160200191611277565b820191906000526020600020905b81548152906001019060200180831161125a57829003601f168201915b5050505050815250509050919050565b606061129282611de3565b9050919050565b60096020528060005260406000206000915090508060000160009054906101000a900473ffffffffffffffffffffffffffffffffffffffff16908060010154908060020154908060030180546112ee906132fc565b80601f016020809104026020016040519081016040528092919081815260200182805461131a906132fc565b80156113675780601f1061133c57610100808354040283529160200191611367565b820191906000526020600020905b81548152906001019060200180831161134a57829003601f168201915b50505050509080600401805461137c906132fc565b80601f01602080910402602001604051908101604052809291908181526020018280546113a8906132fc565b80156113f55780601f106113ca576101008083540402835291602001916113f5565b820191906000526020600020905b8154815290600101906020018083116113d857829003601f168201915b50505050509080600501805461140a906132fc565b80601f0160208091040260200160405190810160405280929190818152602001828054611436906132fc565b80156114835780601f1061145857610100808354040283529160200191611483565b820191906000526020600020905b81548152906001019060200180831161146657829003601f168201915b5050505050905086565b6000600560008473ffffffffffffffffffffffffffffffffffffffff1673ffffffffffffffffffffffffffffffffffffffff16815260200190815260200160002060008373ffffffffffffffffffffffffffffffffffffffff1673ffffffffffffffffffffffffffffffffffffffff16815260200190815260200160002060009054906101000a900460ff16905092915050565b611529611a17565b600073ffffffffffffffffffffffffffffffffffffffff168173ffffffffffffffffffffffffffffffffffffffff161415611599576040517f08c379a000000000000000000000000000000000000000000000000000000000815260040161159090613881565b60405180910390fd5b6115a281611a95565b50565b60007f01ffc9a7000000000000000000000000000000000000000000000000000000007bffffffffffffffffffffffffffffffffffffffffffffffffffffffff1916827bffffffffffffffffffffffffffffffffffffffffffffffffffffffff1916149050919050565b61161881611ef6565b611657576040517f08c379a000000000000000000000000000000000000000000000000000000000815260040161164e90613530565b60405180910390fd5b50565b600033905090565b816004600083815260200190815260200160002060006101000a81548173ffffffffffffffffffffffffffffffffffffffff021916908373ffffffffffffffffffffffffffffffffffffffff160217905550808273ffffffffffffffffffffffffffffffffffffffff166116d583610834565b73ffffffffffffffffffffffffffffffffffffffff167f8c5be1e5ebec7d5bd14f71427d1e84f3dd0314c0f7b2291e5b200ac8c7c3b92560405160405180910390a45050565b60008061172783610834565b90508073ffffffffffffffffffffffffffffffffffffffff168473ffffffffffffffffffffffffffffffffffffffff1614806117695750611768818561148d565b5b806117a757508373ffffffffffffffffffffffffffffffffffffffff1661178f84610656565b73ffffffffffffffffffffffffffffffffffffffff16145b91505092915050565b8273ffffffffffffffffffffffffffffffffffffffff166117d082610834565b73ffffffffffffffffffffffffffffffffffffffff1614611826576040517f08c379a000000000000000000000000000000000000000000000000000000000815260040161181d90613913565b60405180910390fd5b600073ffffffffffffffffffffffffffffffffffffffff168273ffffffffffffffffffffffffffffffffffffffff161415611896576040517f08c379a000000000000000000000000000000000000000000000000000000000815260040161188d906139a5565b60405180910390fd5b6118a1838383611f62565b6118ac600082611662565b6001600360008573ffffffffffffffffffffffffffffffffffffffff1673ffffffffffffffffffffffffffffffffffffffff16815260200190815260200160002060008282546118fc91906139c5565b925050819055506001600360008473ffffffffffffffffffffffffffffffffffffffff1673ffffffffffffffffffffffffffffffffffffffff168152602001908152602001600020600082825461195391906139f9565b92505081905550816002600083815260200190815260200160002060006101000a81548173ffffffffffffffffffffffffffffffffffffffff021916908373ffffffffffffffffffffffffffffffffffffffff160217905550808273ffffffffffffffffffffffffffffffffffffffff168473ffffffffffffffffffffffffffffffffffffffff167fddf252ad1be2c89b69c2b068fc378daa952ba7f163c4a11628f55a4df523b3ef60405160405180910390a4611a1283838361200d565b505050565b611a1f61165a565b73ffffffffffffffffffffffffffffffffffffffff16611a3d610c89565b73ffffffffffffffffffffffffffffffffffffffff1614611a93576040517f08c379a0000000000000000000000000000000000000000000000000000000008152600401611a8a90613a9b565b60405180910390fd5b565b6000600760009054906101000a900473ffffffffffffffffffffffffffffffffffffffff16905081600760006101000a81548173ffffffffffffffffffffffffffffffffffffffff021916908373ffffffffffffffffffffffffffffffffffffffff1602179055508173ffffffffffffffffffffffffffffffffffffffff168173ffffffffffffffffffffffffffffffffffffffff167f8be0079c531659141344cd1fd0a4f28419497f9722a3daafe3b4186f6b6457e060405160405180910390a35050565b3373ffffffffffffffffffffffffffffffffffffffff16611b7b82610834565b73ffffffffffffffffffffffffffffffffffffffff1614611bd1576040517f08c379a0000000000000000000000000000000000000000000000000000000008152600401611bc890613b2d565b60405180910390fd5b611bda8161210b565b50565b8173ffffffffffffffffffffffffffffffffffffffff168373ffffffffffffffffffffffffffffffffffffffff161415611c4c576040517f08c379a0000000000000000000000000000000000000000000000000000000008152600401611c4390613b99565b60405180910390fd5b80600560008573ffffffffffffffffffffffffffffffffffffffff1673ffffffffffffffffffffffffffffffffffffffff16815260200190815260200160002060008473ffffffffffffffffffffffffffffffffffffffff1673ffffffffffffffffffffffffffffffffffffffff16815260200190815260200160002060006101000a81548160ff0219169083151502179055508173ffffffffffffffffffffffffffffffffffffffff168373ffffffffffffffffffffffffffffffffffffffff167f17307eab39ab6107e8899845ad3d59bd9653f200f220920489ca2b5937696c3183604051611d3d9190612acb565b60405180910390a3505050565b600081600001549050919050565b6001816000016000828254019250508190555050565b611d788382612117565b611d828183612135565b505050565b611d928484846117b0565b611d9e848484846121a9565b611ddd576040517f08c379a0000000000000000000000000000000000000000000000000000000008152600401611dd490613c2b565b60405180910390fd5b50505050565b6060611dee8261160f565b6000600660008481526020019081526020016000208054611e0e906132fc565b80601f0160208091040260200160405190810160405280929190818152602001828054611e3a906132fc565b8015611e875780601f10611e5c57610100808354040283529160200191611e87565b820191906000526020600020905b815481529060010190602001808311611e6a57829003601f168201915b505050505090506000611e98612340565b9050600081511415611eae578192505050611ef1565b600082511115611ee3578082604051602001611ecb929190613c87565b60405160208183030381529060405292505050611ef1565b611eec84612357565b925050505b919050565b60008073ffffffffffffffffffffffffffffffffffffffff166002600084815260200190815260200160002060009054906101000a900473ffffffffffffffffffffffffffffffffffffffff1673ffffffffffffffffffffffffffffffffffffffff1614159050919050565b600073ffffffffffffffffffffffffffffffffffffffff168373ffffffffffffffffffffffffffffffffffffffff161480611fc95750600073ffffffffffffffffffffffffffffffffffffffff168273ffffffffffffffffffffffffffffffffffffffff16145b612008576040517f08c379a0000000000000000000000000000000000000000000000000000000008152600401611fff90613d1d565b60405180910390fd5b505050565b600073ffffffffffffffffffffffffffffffffffffffff168373ffffffffffffffffffffffffffffffffffffffff16141561208b57808273ffffffffffffffffffffffffffffffffffffffff167fe9274a84b19e9428826de6bae8c48329354f8f0e73f771b97cae2d9dccd45a2760405160405180910390a3612106565b600073ffffffffffffffffffffffffffffffffffffffff168273ffffffffffffffffffffffffffffffffffffffff16141561210557808273ffffffffffffffffffffffffffffffffffffffff167fec9ab91322523c899ede7830ec9bfc992b5981cdcc27b91162fb23de5791117b60405160405180910390a35b5b505050565b612114816123bf565b50565b612131828260405180602001604052806000815250612412565b5050565b61213e82611ef6565b61217d576040517f08c379a000000000000000000000000000000000000000000000000000000000815260040161217490613daf565b60405180910390fd5b806006600084815260200190815260200160002090805190602001906121a4929190612928565b505050565b60006121ca8473ffffffffffffffffffffffffffffffffffffffff1661246d565b15612333578373ffffffffffffffffffffffffffffffffffffffff1663150b7a026121f361165a565b8786866040518563ffffffff1660e01b81526004016122159493929190613e24565b602060405180830381600087803b15801561222f57600080fd5b505af192505050801561226057506040513d601f19601f8201168201806040525081019061225d9190613e85565b60015b6122e3573d8060008114612290576040519150601f19603f3d011682016040523d82523d6000602084013e612295565b606091505b506000815114156122db576040517f08c379a00000000000000000000000000000000000000000000000000000000081526004016122d290613c2b565b60405180910390fd5b805181602001fd5b63150b7a0260e01b7bffffffffffffffffffffffffffffffffffffffffffffffffffffffff1916817bffffffffffffffffffffffffffffffffffffffffffffffffffffffff191614915050612338565b600190505b949350505050565b606060405180602001604052806000815250905090565b60606123628261160f565b600061236c612340565b9050600081511161238c57604051806020016040528060008152506123b7565b8061239684612490565b6040516020016123a7929190613c87565b6040516020818303038152906040525b915050919050565b6123c8816125f1565b60006006600083815260200190815260200160002080546123e8906132fc565b90501461240f5760066000828152602001908152602001600020600061240e91906128e8565b5b50565b61241c838361270e565b61242960008484846121a9565b612468576040517f08c379a000000000000000000000000000000000000000000000000000000000815260040161245f90613c2b565b60405180910390fd5b505050565b6000808273ffffffffffffffffffffffffffffffffffffffff163b119050919050565b606060008214156124d8576040518060400160405280600181526020017f300000000000000000000000000000000000000000000000000000000000000081525090506125ec565b600082905060005b6000821461250a5780806124f390613eb2565b915050600a8261250391906137de565b91506124e0565b60008167ffffffffffffffff81111561252657612525612dec565b5b6040519080825280601f01601f1916602001820160405280156125585781602001600182028036833780820191505090505b5090505b600085146125e55760018261257191906139c5565b9150600a856125809190613efb565b603061258c91906139f9565b60f81b8183815181106125a2576125a1613f2c565b5b60200101907effffffffffffffffffffffffffffffffffffffffffffffffffffffffffffff1916908160001a905350600a856125de91906137de565b945061255c565b8093505050505b919050565b60006125fc82610834565b905061260a81600084611f62565b612615600083611662565b6001600360008373ffffffffffffffffffffffffffffffffffffffff1673ffffffffffffffffffffffffffffffffffffffff168152602001908152602001600020600082825461266591906139c5565b925050819055506002600083815260200190815260200160002060006101000a81549073ffffffffffffffffffffffffffffffffffffffff021916905581600073ffffffffffffffffffffffffffffffffffffffff168273ffffffffffffffffffffffffffffffffffffffff167fddf252ad1be2c89b69c2b068fc378daa952ba7f163c4a11628f55a4df523b3ef60405160405180910390a461270a8160008461200d565b5050565b600073ffffffffffffffffffffffffffffffffffffffff168273ffffffffffffffffffffffffffffffffffffffff16141561277e576040517f08c379a000000000000000000000000000000000000000000000000000000000815260040161277590613fa7565b60405180910390fd5b61278781611ef6565b156127c7576040517f08c379a00000000000000000000000000000000000000000000000000000000081526004016127be90614013565b60405180910390fd5b6127d360008383611f62565b6001600360008473ffffffffffffffffffffffffffffffffffffffff1673ffffffffffffffffffffffffffffffffffffffff168152602001908152602001600020600082825461282391906139f9565b92505081905550816002600083815260200190815260200160002060006101000a81548173ffffffffffffffffffffffffffffffffffffffff021916908373ffffffffffffffffffffffffffffffffffffffff160217905550808273ffffffffffffffffffffffffffffffffffffffff16600073ffffffffffffffffffffffffffffffffffffffff167fddf252ad1be2c89b69c2b068fc378daa952ba7f163c4a11628f55a4df523b3ef60405160405180910390a46128e46000838361200d565b5050565b5080546128f4906132fc565b6000825580601f106129065750612925565b601f01602090049060005260206000209081019061292491906129fa565b5b50565b828054612934906132fc565b90600052602060002090601f016020900481019282612956576000855561299d565b82601f1061296f57805160ff191683800117855561299d565b8280016001018555821561299d579182015b8281111561299c578251825591602001919060010190612981565b5b5090506129aa91906129fa565b5090565b6040518060c00160405280600073ffffffffffffffffffffffffffffffffffffffff16815260200160008152602001600081526020016060815260200160608152602001606081525090565b5b80821115612a135760008160009055506001016129fb565b5090565b6000604051905090565b600080fd5b600080fd5b60007fffffffff0000000000000000000000000000000000000000000000000000000082169050919050565b612a6081612a2b565b8114612a6b57600080fd5b50565b600081359050612a7d81612a57565b92915050565b600060208284031215612a9957612a98612a21565b5b6000612aa784828501612a6e565b91505092915050565b60008115159050919050565b612ac581612ab0565b82525050565b6000602082019050612ae06000830184612abc565b92915050565b600081519050919050565b600082825260208201905092915050565b60005b83811015612b20578082015181840152602081019050612b05565b83811115612b2f576000848401525b50505050565b6000601f19601f8301169050919050565b6000612b5182612ae6565b612b5b8185612af1565b9350612b6b818560208601612b02565b612b7481612b35565b840191505092915050565b60006020820190508181036000830152612b998184612b46565b905092915050565b6000819050919050565b612bb481612ba1565b8114612bbf57600080fd5b50565b600081359050612bd181612bab565b92915050565b600060208284031215612bed57612bec612a21565b5b6000612bfb84828501612bc2565b91505092915050565b600073ffffffffffffffffffffffffffffffffffffffff82169050919050565b6000612c2f82612c04565b9050919050565b612c3f81612c24565b82525050565b6000602082019050612c5a6000830184612c36565b92915050565b612c6981612c24565b8114612c7457600080fd5b50565b600081359050612c8681612c60565b92915050565b60008060408385031215612ca357612ca2612a21565b5b6000612cb185828601612c77565b9250506020612cc285828601612bc2565b9150509250929050565b600080600060608486031215612ce557612ce4612a21565b5b6000612cf386828701612c77565b9350506020612d0486828701612c77565b9250506040612d1586828701612bc2565b9150509250925092565b600060208284031215612d3557612d34612a21565b5b6000612d4384828501612c77565b91505092915050565b612d5581612ba1565b82525050565b6000602082019050612d706000830184612d4c565b92915050565b612d7f81612ab0565b8114612d8a57600080fd5b50565b600081359050612d9c81612d76565b92915050565b60008060408385031215612db957612db8612a21565b5b6000612dc785828601612c77565b9250506020612dd885828601612d8d565b9150509250929050565b600080fd5b600080fd5b7f4e487b7100000000000000000000000000000000000000000000000000000000600052604160045260246000fd5b612e2482612b35565b810181811067ffffffffffffffff82111715612e4357612e42612dec565b5b80604052505050565b6000612e56612a17565b9050612e628282612e1b565b919050565b600067ffffffffffffffff821115612e8257612e81612dec565b5b612e8b82612b35565b9050602081019050919050565b82818337600083830152505050565b6000612eba612eb584612e67565b612e4c565b905082815260208101848484011115612ed657612ed5612de7565b5b612ee1848285612e98565b509392505050565b600082601f830112612efe57612efd612de2565b5b8135612f0e848260208601612ea7565b91505092915050565b60008060008060808587031215612f3157612f30612a21565b5b6000612f3f87828801612bc2565b945050602085013567ffffffffffffffff811115612f6057612f5f612a26565b5b612f6c87828801612ee9565b935050604085013567ffffffffffffffff811115612f8d57612f8c612a26565b5b612f9987828801612ee9565b925050606085013567ffffffffffffffff811115612fba57612fb9612a26565b5b612fc687828801612ee9565b91505092959194509250565b600067ffffffffffffffff821115612fed57612fec612dec565b5b612ff682612b35565b9050602081019050919050565b600061301661301184612fd2565b612e4c565b90508281526020810184848401111561303257613031612de7565b5b61303d848285612e98565b509392505050565b600082601f83011261305a57613059612de2565b5b813561306a848260208601613003565b91505092915050565b6000806000806080858703121561308d5761308c612a21565b5b600061309b87828801612c77565b94505060206130ac87828801612c77565b93505060406130bd87828801612bc2565b925050606085013567ffffffffffffffff8111156130de576130dd612a26565b5b6130ea87828801613045565b91505092959194509250565b6130ff81612c24565b82525050565b61310e81612ba1565b82525050565b600082825260208201905092915050565b600061313082612ae6565b61313a8185613114565b935061314a818560208601612b02565b61315381612b35565b840191505092915050565b600060c08301600083015161317660008601826130f6565b5060208301516131896020860182613105565b50604083015161319c6040860182613105565b50606083015184820360608601526131b48282613125565b915050608083015184820360808601526131ce8282613125565b91505060a083015184820360a08601526131e88282613125565b9150508091505092915050565b6000602082019050818103600083015261320f818461315e565b905092915050565b600060c08201905061322c6000830189612c36565b6132396020830188612d4c565b6132466040830187612d4c565b81810360608301526132588186612b46565b9050818103608083015261326c8185612b46565b905081810360a08301526132808184612b46565b9050979650505050505050565b600080604083850312156132a4576132a3612a21565b5b60006132b285828601612c77565b92505060206132c385828601612c77565b9150509250929050565b7f4e487b7100000000000000000000000000000000000000000000000000000000600052602260045260246000fd5b6000600282049050600182168061331457607f821691505b60208210811415613328576133276132cd565b5b50919050565b7f4552433732313a20617070726f76616c20746f2063757272656e74206f776e6560008201527f7200000000000000000000000000000000000000000000000000000000000000602082015250565b600061338a602183612af1565b91506133958261332e565b604082019050919050565b600060208201905081810360008301526133b98161337d565b9050919050565b7f4552433732313a20617070726f76652063616c6c6572206973206e6f7420746f60008201527f6b656e206f776e6572206e6f7220617070726f76656420666f7220616c6c0000602082015250565b600061341c603e83612af1565b9150613427826133c0565b604082019050919050565b6000602082019050818103600083015261344b8161340f565b9050919050565b7f4552433732313a2063616c6c6572206973206e6f7420746f6b656e206f776e6560008201527f72206e6f7220617070726f766564000000000000000000000000000000000000602082015250565b60006134ae602e83612af1565b91506134b982613452565b604082019050919050565b600060208201905081810360008301526134dd816134a1565b9050919050565b7f4552433732313a20696e76616c696420746f6b656e2049440000000000000000600082015250565b600061351a601883612af1565b9150613525826134e4565b602082019050919050565b600060208201905081810360008301526135498161350d565b9050919050565b7f4552433732313a2061646472657373207a65726f206973206e6f74206120766160008201527f6c6964206f776e65720000000000000000000000000000000000000000000000602082015250565b60006135ac602983612af1565b91506135b782613550565b604082019050919050565b600060208201905081810360008301526135db8161359f565b9050919050565b7f4f6e6c79206f776e65722063616e20756e6c6f636b0000000000000000000000600082015250565b6000613618601583612af1565b9150613623826135e2565b602082019050919050565b600060208201905081810360008301526136478161360b565b9050919050565b7f596f7520646f6e2774206861766520616e7920746f6b656e204c6f636b656400600082015250565b6000613684601f83612af1565b915061368f8261364e565b602082019050919050565b600060208201905081810360008301526136b381613677565b9050919050565b7f4e487b7100000000000000000000000000000000000000000000000000000000600052601160045260246000fd5b60006136f482612ba1565b91506136ff83612ba1565b9250817fffffffffffffffffffffffffffffffffffffffffffffffffffffffffffffffff0483118215151615613738576137376136ba565b5b828202905092915050565b7f616c7265616479204c6f636b6564000000000000000000000000000000000000600082015250565b6000613779600e83612af1565b915061378482613743565b602082019050919050565b600060208201905081810360008301526137a88161376c565b9050919050565b7f4e487b7100000000000000000000000000000000000000000000000000000000600052601260045260246000fd5b60006137e982612ba1565b91506137f483612ba1565b925082613804576138036137af565b5b828204905092915050565b7f4f776e61626c653a206e6577206f776e657220697320746865207a65726f206160008201527f6464726573730000000000000000000000000000000000000000000000000000602082015250565b600061386b602683612af1565b91506138768261380f565b604082019050919050565b6000602082019050818103600083015261389a8161385e565b9050919050565b7f4552433732313a207472616e736665722066726f6d20696e636f72726563742060008201527f6f776e6572000000000000000000000000000000000000000000000000000000602082015250565b60006138fd602583612af1565b9150613908826138a1565b604082019050919050565b6000602082019050818103600083015261392c816138f0565b9050919050565b7f4552433732313a207472616e7366657220746f20746865207a65726f2061646460008201527f7265737300000000000000000000000000000000000000000000000000000000602082015250565b600061398f602483612af1565b915061399a82613933565b604082019050919050565b600060208201905081810360008301526139be81613982565b9050919050565b60006139d082612ba1565b91506139db83612ba1565b9250828210156139ee576139ed6136ba565b5b828203905092915050565b6000613a0482612ba1565b9150613a0f83612ba1565b9250827fffffffffffffffffffffffffffffffffffffffffffffffffffffffffffffffff03821115613a4457613a436136ba565b5b828201905092915050565b7f4f776e61626c653a2063616c6c6572206973206e6f7420746865206f776e6572600082015250565b6000613a85602083612af1565b9150613a9082613a4f565b602082019050919050565b60006020820190508181036000830152613ab481613a78565b9050919050565b7f4f6e6c79206f776e6572206f662074686520636572746966696361746520636160008201527f6e206275726e2069740000000000000000000000000000000000000000000000602082015250565b6000613b17602983612af1565b9150613b2282613abb565b604082019050919050565b60006020820190508181036000830152613b4681613b0a565b9050919050565b7f4552433732313a20617070726f766520746f2063616c6c657200000000000000600082015250565b6000613b83601983612af1565b9150613b8e82613b4d565b602082019050919050565b60006020820190508181036000830152613bb281613b76565b9050919050565b7f4552433732313a207472616e7366657220746f206e6f6e20455243373231526560008201527f63656976657220696d706c656d656e7465720000000000000000000000000000602082015250565b6000613c15603283612af1565b9150613c2082613bb9565b604082019050919050565b60006020820190508181036000830152613c4481613c08565b9050919050565b600081905092915050565b6000613c6182612ae6565b613c6b8185613c4b565b9350613c7b818560208601612b02565b80840191505092915050565b6000613c938285613c56565b9150613c9f8284613c56565b91508190509392505050565b7f4e6f7420616c6c6f77656420746f207472616e7366657220636572746966696360008201527f6174650000000000000000000000000000000000000000000000000000000000602082015250565b6000613d07602383612af1565b9150613d1282613cab565b604082019050919050565b60006020820190508181036000830152613d3681613cfa565b9050919050565b7f45524337323155524953746f726167653a2055524920736574206f66206e6f6e60008201527f6578697374656e7420746f6b656e000000000000000000000000000000000000602082015250565b6000613d99602e83612af1565b9150613da482613d3d565b604082019050919050565b60006020820190508181036000830152613dc881613d8c565b9050919050565b600081519050919050565b600082825260208201905092915050565b6000613df682613dcf565b613e008185613dda565b9350613e10818560208601612b02565b613e1981612b35565b840191505092915050565b6000608082019050613e396000830187612c36565b613e466020830186612c36565b613e536040830185612d4c565b8181036060830152613e658184613deb565b905095945050505050565b600081519050613e7f81612a57565b92915050565b600060208284031215613e9b57613e9a612a21565b5b6000613ea984828501613e70565b91505092915050565b6000613ebd82612ba1565b91507fffffffffffffffffffffffffffffffffffffffffffffffffffffffffffffffff821415613ef057613eef6136ba565b5b600182019050919050565b6000613f0682612ba1565b9150613f1183612ba1565b925082613f2157613f206137af565b5b828206905092915050565b7f4e487b7100000000000000000000000000000000000000000000000000000000600052603260045260246000fd5b7f4552433732313a206d696e7420746f20746865207a65726f2061646472657373600082015250565b6000613f91602083612af1565b9150613f9c82613f5b565b602082019050919050565b60006020820190508181036000830152613fc081613f84565b9050919050565b7f4552433732313a20746f6b656e20616c7265616479206d696e74656400000000600082015250565b6000613ffd601c83612af1565b915061400882613fc7565b602082019050919050565b6000602082019050818103600083015261402c81613ff0565b905091905056fea26469706673582212202447b8dee20131da19647f3bc7ebe45a2feb0db005fe0a24654bed738b2e018664736f6c63430008090033",
  "linkReferences": {},
  "deployedLinkReferences": {}
}